{
  "address": "0xd2C53fF6e7820C51113f177387153982DF902306",
  "abi": [
    {
      "anonymous": false,
      "inputs": [
        {
          "indexed": true,
          "internalType": "address",
          "name": "from",
          "type": "address"
        },
        {
          "indexed": false,
          "internalType": "uint256",
          "name": "amount",
          "type": "uint256"
        }
      ],
      "name": "Deposit",
      "type": "event"
    },
    {
      "anonymous": false,
      "inputs": [
        {
          "indexed": true,
          "internalType": "address",
          "name": "previousOwner",
          "type": "address"
        },
        {
          "indexed": true,
          "internalType": "address",
          "name": "newOwner",
          "type": "address"
        }
      ],
      "name": "OwnershipTransferred",
      "type": "event"
    },
    {
      "anonymous": false,
      "inputs": [
        {
          "indexed": true,
          "internalType": "address",
          "name": "to",
          "type": "address"
        },
        {
          "indexed": false,
          "internalType": "uint256",
          "name": "amount",
          "type": "uint256"
        }
      ],
      "name": "Withdrawal",
      "type": "event"
    },
    {
      "inputs": [],
      "name": "BUIDLGUIDL_ORACLE",
      "outputs": [
        {
          "internalType": "contract BuidlGuidlOracle",
          "name": "",
          "type": "address"
        }
      ],
      "stateMutability": "view",
      "type": "function"
    },
    {
      "inputs": [],
      "name": "claimAmount",
      "outputs": [
        {
          "internalType": "uint256",
          "name": "",
          "type": "uint256"
        }
      ],
      "stateMutability": "view",
      "type": "function"
    },
    {
      "inputs": [],
      "name": "claimPeriod",
      "outputs": [
        {
          "internalType": "uint256",
          "name": "",
          "type": "uint256"
        }
      ],
      "stateMutability": "view",
      "type": "function"
    },
    {
      "inputs": [
        {
          "internalType": "address",
          "name": "",
          "type": "address"
        }
      ],
      "name": "nextClaimTime",
      "outputs": [
        {
          "internalType": "uint256",
          "name": "",
          "type": "uint256"
        }
      ],
      "stateMutability": "view",
      "type": "function"
    },
    {
      "inputs": [],
      "name": "owner",
      "outputs": [
        {
          "internalType": "address",
          "name": "",
          "type": "address"
        }
      ],
      "stateMutability": "view",
      "type": "function"
    },
    {
      "inputs": [],
      "name": "renounceOwnership",
      "outputs": [],
      "stateMutability": "nonpayable",
      "type": "function"
    },
    {
      "inputs": [
        {
          "internalType": "address",
          "name": "newOwner",
          "type": "address"
        }
      ],
      "name": "transferOwnership",
      "outputs": [],
      "stateMutability": "nonpayable",
      "type": "function"
    },
    {
      "inputs": [
        {
          "internalType": "bytes32[]",
          "name": "_proof",
          "type": "bytes32[]"
        },
        {
          "internalType": "address",
          "name": "_to",
          "type": "address"
        }
      ],
      "name": "withdraw",
      "outputs": [],
      "stateMutability": "nonpayable",
      "type": "function"
    },
    {
      "stateMutability": "payable",
      "type": "receive"
    }
  ],
  "transactionHash": "0x49ef1d05b185fc719e988aa28913c526506d57c72c1981aa0921db840763f156",
  "args": [],
  "numDeployments": 1,
  "solcInputHash": "fcb1cfeb25dbd9a2cd4062f95ca22716",
  "bytecode": "0x608060405267016345785d8a00006001556201518060025534801561002357600080fd5b5061002d33610032565b610082565b600080546001600160a01b038381166001600160a01b0319831681178455604051919092169283917f8be0079c531659141344cd1fd0a4f28419497f9722a3daafe3b4186f6b6457e09190a35050565b610769806100916000396000f3fe60806040526004361061007f5760003560e01c8063830953ab1161004e578063830953ab1461014d5780638da5cb5b14610163578063b53214cf14610195578063f2fde38b146101bd57600080fd5b806338be5592146100c057806370f23da7146100e2578063715018a6146101225780637dc2cd981461013757600080fd5b366100bb5760405134815233907fe1fffcc4923d04b559f4d29a8bfc6cda04eb5b0d3c460751c2402c5c5cc9109c9060200160405180910390a2005b600080fd5b3480156100cc57600080fd5b506100e06100db3660046105a4565b6101dd565b005b3480156100ee57600080fd5b5061010f6100fd366004610674565b60036020526000908152604090205481565b6040519081526020015b60405180910390f35b34801561012e57600080fd5b506100e061043b565b34801561014357600080fd5b5061010f60025481565b34801561015957600080fd5b5061010f60015481565b34801561016f57600080fd5b506000546001600160a01b03165b6040516001600160a01b039091168152602001610119565b3480156101a157600080fd5b5061017d73ec3aef6c2b8b394eed0e9d92286e716c6cce5b8181565b3480156101c957600080fd5b506100e06101d8366004610674565b61044f565b60015447101561023e5760405162461bcd60e51b815260206004820152602160248201527f4e6f7420656e6f7567682062616c616e636520696e20746865206661756365746044820152602160f81b60648201526084015b60405180910390fd5b6001600160a01b0381166000908152600360205260409020544210156102c15760405162461bcd60e51b815260206004820152603260248201527f506c6561736520776169742061206c6974746c6520626974206265666f7265206044820152717769746864726177696e6720616761696e2160701b6064820152608401610235565b6040516308637e9160e11b815273ec3aef6c2b8b394eed0e9d92286e716c6cce5b81906310c6fd22906102fa9085908590600401610696565b602060405180830381865afa158015610317573d6000803e3d6000fd5b505050506040513d601f19601f8201168201806040525081019061033b91906106ea565b61039a5760405162461bcd60e51b815260206004820152602a60248201527f596f75206861766520746f2062652061206d656d626572206f662074686520426044820152697569646c477569646c2160b01b6064820152608401610235565b6002546103a7904261070c565b6001600160a01b038216600081815260036020526040808220939093556001549251919280156108fc02929091818181858888f193505050501580156103f1573d6000803e3d6000fd5b50806001600160a01b03167f7fcf532c15f0a6db0bd6d0e038bea71d30d808c7d98cb3bf7268a95bf5081b6560015460405161042f91815260200190565b60405180910390a25050565b6104436104c8565b61044d6000610522565b565b6104576104c8565b6001600160a01b0381166104bc5760405162461bcd60e51b815260206004820152602660248201527f4f776e61626c653a206e6577206f776e657220697320746865207a65726f206160448201526564647265737360d01b6064820152608401610235565b6104c581610522565b50565b6000546001600160a01b0316331461044d5760405162461bcd60e51b815260206004820181905260248201527f4f776e61626c653a2063616c6c6572206973206e6f7420746865206f776e65726044820152606401610235565b600080546001600160a01b038381166001600160a01b0319831681178455604051919092169283917f8be0079c531659141344cd1fd0a4f28419497f9722a3daafe3b4186f6b6457e09190a35050565b634e487b7160e01b600052604160045260246000fd5b80356001600160a01b038116811461059f57600080fd5b919050565b600080604083850312156105b757600080fd5b823567ffffffffffffffff808211156105cf57600080fd5b818501915085601f8301126105e357600080fd5b81356020828211156105f7576105f7610572565b8160051b604051601f19603f8301168101818110868211171561061c5761061c610572565b60405292835281830193508481018201928984111561063a57600080fd5b948201945b838610156106585785358552948201949382019361063f565b96506106679050878201610588565b9450505050509250929050565b60006020828403121561068657600080fd5b61068f82610588565b9392505050565b604080825283519082018190526000906020906060840190828701845b828110156106cf578151845292840192908401906001016106b3565b5050506001600160a01b039490941692019190915250919050565b6000602082840312156106fc57600080fd5b8151801515811461068f57600080fd5b8082018082111561072d57634e487b7160e01b600052601160045260246000fd5b9291505056fea264697066735822122096118bf4bc827750c0ea7f0f06f92a8f3f7fa40b35ba56ba08e02574a360967b64736f6c63430008110033",
  "devdoc": {
    "kind": "dev",
    "methods": {
      "owner()": {
        "details": "Returns the address of the current owner."
      },
      "renounceOwnership()": {
        "details": "Leaves the contract without owner. It will not be possible to call `onlyOwner` functions. Can only be called by the current owner. NOTE: Renouncing ownership will leave the contract without an owner, thereby disabling any functionality that is only available to the owner."
      },
      "transferOwnership(address)": {
        "details": "Transfers ownership of the contract to a new account (`newOwner`). Can only be called by the current owner."
      }
    },
    "version": 1
  },
  "userdoc": {
    "kind": "user",
    "methods": {},
    "version": 1
  },
  "storageLayout": {
    "storage": [
      {
        "astId": 7,
        "contract": "contracts/BuidlGuidlFaucet.sol:BuidlGuidlFaucet",
        "label": "_owner",
        "offset": 0,
        "slot": "0",
        "type": "t_address"
      },
      {
        "astId": 159,
        "contract": "contracts/BuidlGuidlFaucet.sol:BuidlGuidlFaucet",
        "label": "claimAmount",
        "offset": 0,
        "slot": "1",
        "type": "t_uint256"
      },
      {
        "astId": 162,
        "contract": "contracts/BuidlGuidlFaucet.sol:BuidlGuidlFaucet",
        "label": "claimPeriod",
        "offset": 0,
        "slot": "2",
        "type": "t_uint256"
      },
      {
        "astId": 166,
        "contract": "contracts/BuidlGuidlFaucet.sol:BuidlGuidlFaucet",
        "label": "nextClaimTime",
        "offset": 0,
        "slot": "3",
        "type": "t_mapping(t_address,t_uint256)"
      }
    ],
    "types": {
      "t_address": {
        "encoding": "inplace",
        "label": "address",
        "numberOfBytes": "20"
      },
      "t_mapping(t_address,t_uint256)": {
        "encoding": "mapping",
        "key": "t_address",
        "label": "mapping(address => uint256)",
        "numberOfBytes": "32",
        "value": "t_uint256"
      },
      "t_uint256": {
        "encoding": "inplace",
        "label": "uint256",
        "numberOfBytes": "32"
      }
    }
  }
}