{
  "address": "0x71622a120fAc17d4990c5643003b9f9a1E73682F",
  "abi": [
    {
      "anonymous": false,
      "inputs": [
        {
          "indexed": true,
          "internalType": "address",
          "name": "previousOwner",
          "type": "address"
        },
        {
          "indexed": true,
          "internalType": "address",
          "name": "newOwner",
          "type": "address"
        }
      ],
      "name": "OwnershipTransferred",
      "type": "event"
    },
    {
      "anonymous": false,
      "inputs": [
        {
          "indexed": true,
          "internalType": "address",
          "name": "to",
          "type": "address"
        },
        {
          "indexed": false,
          "internalType": "uint256",
          "name": "amount",
          "type": "uint256"
        }
      ],
      "name": "Withdrawal",
      "type": "event"
    },
    {
      "inputs": [],
      "name": "BUIDLGUIDL_ORACLE",
      "outputs": [
        {
          "internalType": "contract BuidlGuidlOracle",
          "name": "",
          "type": "address"
        }
      ],
      "stateMutability": "view",
      "type": "function"
    },
    {
      "inputs": [],
      "name": "claimAmount",
      "outputs": [
        {
          "internalType": "uint256",
          "name": "",
          "type": "uint256"
        }
      ],
      "stateMutability": "view",
      "type": "function"
    },
    {
      "inputs": [],
      "name": "claimPeriod",
      "outputs": [
        {
          "internalType": "uint256",
          "name": "",
          "type": "uint256"
        }
      ],
      "stateMutability": "view",
      "type": "function"
    },
    {
      "inputs": [
        {
          "internalType": "address",
          "name": "",
          "type": "address"
        }
      ],
      "name": "nextClaimTime",
      "outputs": [
        {
          "internalType": "uint256",
          "name": "",
          "type": "uint256"
        }
      ],
      "stateMutability": "view",
      "type": "function"
    },
    {
      "inputs": [],
      "name": "owner",
      "outputs": [
        {
          "internalType": "address",
          "name": "",
          "type": "address"
        }
      ],
      "stateMutability": "view",
      "type": "function"
    },
    {
      "inputs": [],
      "name": "renounceOwnership",
      "outputs": [],
      "stateMutability": "nonpayable",
      "type": "function"
    },
    {
      "inputs": [
        {
          "internalType": "address",
          "name": "newOwner",
          "type": "address"
        }
      ],
      "name": "transferOwnership",
      "outputs": [],
      "stateMutability": "nonpayable",
      "type": "function"
    },
    {
      "inputs": [
        {
          "internalType": "bytes32[]",
          "name": "_proof",
          "type": "bytes32[]"
        },
        {
          "internalType": "address",
          "name": "_to",
          "type": "address"
        }
      ],
      "name": "withdraw",
      "outputs": [],
      "stateMutability": "nonpayable",
      "type": "function"
    }
  ],
  "transactionHash": "0x3686a4cb2321421c7bd2fdd923e3373c21b8c88f97becbb81623625259a2f145",
  "args": [],
  "numDeployments": 1,
  "solcInputHash": "a5384914af40007ecf14f23476457d8f",
  "bytecode": "0x608060405267016345785d8a00006001556201518060025534801561002357600080fd5b5061002d33610032565b610082565b600080546001600160a01b038381166001600160a01b0319831681178455604051919092169283917f8be0079c531659141344cd1fd0a4f28419497f9722a3daafe3b4186f6b6457e09190a35050565b6106ce806100916000396000f3fe608060405234801561001057600080fd5b50600436106100885760003560e01c8063830953ab1161005b578063830953ab146100e65780638da5cb5b146100ef578063b53214cf14610114578063f2fde38b1461012f57600080fd5b806338be55921461008d57806370f23da7146100a2578063715018a6146100d55780637dc2cd98146100dd575b600080fd5b6100a061009b366004610509565b610142565b005b6100c26100b03660046105d9565b60036020526000908152604090205481565b6040519081526020015b60405180910390f35b6100a06103a0565b6100c260025481565b6100c260015481565b6000546001600160a01b03165b6040516001600160a01b0390911681526020016100cc565b6100fc73ec3aef6c2b8b394eed0e9d92286e716c6cce5b8181565b6100a061013d3660046105d9565b6103b4565b6001544710156101a35760405162461bcd60e51b815260206004820152602160248201527f4e6f7420656e6f7567682062616c616e636520696e20746865206661756365746044820152602160f81b60648201526084015b60405180910390fd5b6001600160a01b0381166000908152600360205260409020544210156102265760405162461bcd60e51b815260206004820152603260248201527f506c6561736520776169742061206c6974746c6520626974206265666f7265206044820152717769746864726177696e6720616761696e2160701b606482015260840161019a565b6040516308637e9160e11b815273ec3aef6c2b8b394eed0e9d92286e716c6cce5b81906310c6fd229061025f90859085906004016105fb565b602060405180830381865afa15801561027c573d6000803e3d6000fd5b505050506040513d601f19601f820116820180604052508101906102a0919061064f565b6102ff5760405162461bcd60e51b815260206004820152602a60248201527f596f75206861766520746f2062652061206d656d626572206f662074686520426044820152697569646c477569646c2160b01b606482015260840161019a565b60025461030c9042610671565b6001600160a01b038216600081815260036020526040808220939093556001549251919280156108fc02929091818181858888f19350505050158015610356573d6000803e3d6000fd5b50806001600160a01b03167f7fcf532c15f0a6db0bd6d0e038bea71d30d808c7d98cb3bf7268a95bf5081b6560015460405161039491815260200190565b60405180910390a25050565b6103a861042d565b6103b26000610487565b565b6103bc61042d565b6001600160a01b0381166104215760405162461bcd60e51b815260206004820152602660248201527f4f776e61626c653a206e6577206f776e657220697320746865207a65726f206160448201526564647265737360d01b606482015260840161019a565b61042a81610487565b50565b6000546001600160a01b031633146103b25760405162461bcd60e51b815260206004820181905260248201527f4f776e61626c653a2063616c6c6572206973206e6f7420746865206f776e6572604482015260640161019a565b600080546001600160a01b038381166001600160a01b0319831681178455604051919092169283917f8be0079c531659141344cd1fd0a4f28419497f9722a3daafe3b4186f6b6457e09190a35050565b634e487b7160e01b600052604160045260246000fd5b80356001600160a01b038116811461050457600080fd5b919050565b6000806040838503121561051c57600080fd5b823567ffffffffffffffff8082111561053457600080fd5b818501915085601f83011261054857600080fd5b813560208282111561055c5761055c6104d7565b8160051b604051601f19603f83011681018181108682111715610581576105816104d7565b60405292835281830193508481018201928984111561059f57600080fd5b948201945b838610156105bd578535855294820194938201936105a4565b96506105cc90508782016104ed565b9450505050509250929050565b6000602082840312156105eb57600080fd5b6105f4826104ed565b9392505050565b604080825283519082018190526000906020906060840190828701845b8281101561063457815184529284019290840190600101610618565b5050506001600160a01b039490941692019190915250919050565b60006020828403121561066157600080fd5b815180151581146105f457600080fd5b8082018082111561069257634e487b7160e01b600052601160045260246000fd5b9291505056fea264697066735822122076a63caa9e8899b3afd0040519a8baa9a24f6586743c8d7e754618a3da3062e264736f6c63430008110033",
  "devdoc": {
    "kind": "dev",
    "methods": {
      "owner()": {
        "details": "Returns the address of the current owner."
      },
      "renounceOwnership()": {
        "details": "Leaves the contract without owner. It will not be possible to call `onlyOwner` functions. Can only be called by the current owner. NOTE: Renouncing ownership will leave the contract without an owner, thereby disabling any functionality that is only available to the owner."
      },
      "transferOwnership(address)": {
        "details": "Transfers ownership of the contract to a new account (`newOwner`). Can only be called by the current owner."
      }
    },
    "version": 1
  },
  "userdoc": {
    "kind": "user",
    "methods": {},
    "version": 1
  },
  "storageLayout": {
    "storage": [
      {
        "astId": 7,
        "contract": "contracts/Faucet.sol:Faucet",
        "label": "_owner",
        "offset": 0,
        "slot": "0",
        "type": "t_address"
      },
      {
        "astId": 159,
        "contract": "contracts/Faucet.sol:Faucet",
        "label": "claimAmount",
        "offset": 0,
        "slot": "1",
        "type": "t_uint256"
      },
      {
        "astId": 162,
        "contract": "contracts/Faucet.sol:Faucet",
        "label": "claimPeriod",
        "offset": 0,
        "slot": "2",
        "type": "t_uint256"
      },
      {
        "astId": 166,
        "contract": "contracts/Faucet.sol:Faucet",
        "label": "nextClaimTime",
        "offset": 0,
        "slot": "3",
        "type": "t_mapping(t_address,t_uint256)"
      }
    ],
    "types": {
      "t_address": {
        "encoding": "inplace",
        "label": "address",
        "numberOfBytes": "20"
      },
      "t_mapping(t_address,t_uint256)": {
        "encoding": "mapping",
        "key": "t_address",
        "label": "mapping(address => uint256)",
        "numberOfBytes": "32",
        "value": "t_uint256"
      },
      "t_uint256": {
        "encoding": "inplace",
        "label": "uint256",
        "numberOfBytes": "32"
      }
    }
  }
}